{"abi":[{"type":"constructor","inputs":[],"stateMutability":"nonpayable"},{"type":"function","name":"activeCount","inputs":[],"outputs":[{"name":"","type":"uint256","internalType":"uint256"}],"stateMutability":"view"},{"type":"function","name":"addVillager","inputs":[{"name":"wallet","type":"address","internalType":"address"},{"name":"cap","type":"uint256","internalType":"uint256"}],"outputs":[],"stateMutability":"nonpayable"},{"type":"function","name":"getAllVillagers","inputs":[],"outputs":[{"name":"","type":"tuple[]","internalType":"struct Villager[]","components":[{"name":"wallet","type":"address","internalType":"address"},{"name":"cap","type":"uint256","internalType":"uint256"},{"name":"voteReinvest","type":"bool","internalType":"bool"},{"name":"joinedAt","type":"uint256","internalType":"uint256"},{"name":"isActive","type":"bool","internalType":"bool"}]}],"stateMutability":"view"},{"type":"function","name":"getIdByAddress","inputs":[{"name":"wallet","type":"address","internalType":"address"}],"outputs":[{"name":"","type":"uint256","internalType":"uint256"}],"stateMutability":"view"},{"type":"function","name":"getVillager","inputs":[{"name":"id","type":"uint256","internalType":"uint256"}],"outputs":[{"name":"","type":"tuple","internalType":"struct Villager","components":[{"name":"wallet","type":"address","internalType":"address"},{"name":"cap","type":"uint256","internalType":"uint256"},{"name":"voteReinvest","type":"bool","internalType":"bool"},{"name":"joinedAt","type":"uint256","internalType":"uint256"},{"name":"isActive","type":"bool","internalType":"bool"}]}],"stateMutability":"view"},{"type":"function","name":"getVillagerByAddress","inputs":[{"name":"wallet","type":"address","internalType":"address"}],"outputs":[{"name":"","type":"tuple","internalType":"struct Villager","components":[{"name":"wallet","type":"address","internalType":"address"},{"name":"cap","type":"uint256","internalType":"uint256"},{"name":"voteReinvest","type":"bool","internalType":"bool"},{"name":"joinedAt","type":"uint256","internalType":"uint256"},{"name":"isActive","type":"bool","internalType":"bool"}]}],"stateMutability":"view"},{"type":"function","name":"isVillager","inputs":[{"name":"wallet","type":"address","internalType":"address"}],"outputs":[{"name":"","type":"bool","internalType":"bool"}],"stateMutability":"view"},{"type":"function","name":"owner","inputs":[],"outputs":[{"name":"","type":"address","internalType":"address"}],"stateMutability":"view"},{"type":"function","name":"recoverWallet","inputs":[{"name":"oldWallet","type":"address","internalType":"address"},{"name":"newWallet","type":"address","internalType":"address"}],"outputs":[],"stateMutability":"nonpayable"},{"type":"function","name":"removeVillager","inputs":[{"name":"id","type":"uint256","internalType":"uint256"}],"outputs":[],"stateMutability":"nonpayable"},{"type":"function","name":"setCap","inputs":[{"name":"id","type":"uint256","internalType":"uint256"},{"name":"cap","type":"uint256","internalType":"uint256"}],"outputs":[],"stateMutability":"nonpayable"},{"type":"function","name":"setVoteReinvest","inputs":[{"name":"_voteReinvest","type":"bool","internalType":"bool"}],"outputs":[],"stateMutability":"nonpayable"},{"type":"function","name":"transferOwnership","inputs":[{"name":"newOwner","type":"address","internalType":"address"}],"outputs":[],"stateMutability":"nonpayable"},{"type":"function","name":"villagerCount","inputs":[],"outputs":[{"name":"","type":"uint256","internalType":"uint256"}],"stateMutability":"view"},{"type":"event","name":"CapUpdated","inputs":[{"name":"id","type":"uint256","indexed":true,"internalType":"uint256"},{"name":"oldCap","type":"uint256","indexed":false,"internalType":"uint256"},{"name":"newCap","type":"uint256","indexed":false,"internalType":"uint256"}],"anonymous":false},{"type":"event","name":"OwnershipTransferred","inputs":[{"name":"oldOwner","type":"address","indexed":true,"internalType":"address"},{"name":"newOwner","type":"address","indexed":true,"internalType":"address"}],"anonymous":false},{"type":"event","name":"VillagerAdded","inputs":[{"name":"id","type":"uint256","indexed":true,"internalType":"uint256"},{"name":"wallet","type":"address","indexed":true,"internalType":"address"}],"anonymous":false},{"type":"event","name":"VillagerRemoved","inputs":[{"name":"id","type":"uint256","indexed":true,"internalType":"uint256"},{"name":"wallet","type":"address","indexed":true,"internalType":"address"}],"anonymous":false},{"type":"event","name":"VoteChanged","inputs":[{"name":"id","type":"uint256","indexed":true,"internalType":"uint256"},{"name":"voteReinvest","type":"bool","indexed":false,"internalType":"bool"}],"anonymous":false},{"type":"event","name":"WalletRecovered","inputs":[{"name":"id","type":"uint256","indexed":true,"internalType":"uint256"},{"name":"oldWallet","type":"address","indexed":true,"internalType":"address"},{"name":"newWallet","type":"address","indexed":true,"internalType":"address"}],"anonymous":false}],"bytecode":{"object":"0x608060405234801561000f575f5ffd5b50335f5f6101000a81548173ffffffffffffffffffffffffffffffffffffffff021916908373ffffffffffffffffffffffffffffffffffffffff160217905550600180819055505f60015f81548092919061006990610237565b9190505590506040518060a001604052803373ffffffffffffffffffffffffffffffffffffffff16815260200161271081526020016001151581526020014281526020016001151581525060035f8381526020019081526020015f205f820151815f015f6101000a81548173ffffffffffffffffffffffffffffffffffffffff021916908373ffffffffffffffffffffffffffffffffffffffff160217905550602082015181600101556040820151816002015f6101000a81548160ff021916908315150217905550606082015181600301556080820151816004015f6101000a81548160ff0219169083151502179055509050508060045f3373ffffffffffffffffffffffffffffffffffffffff1673ffffffffffffffffffffffffffffffffffffffff1681526020019081526020015f208190555060025f8154809291906101b290610237565b91905055503373ffffffffffffffffffffffffffffffffffffffff16817fd1a9505dc14779394956ff41759d1b3f50abb4873d5bd171fcaef79e0a66d9b860405160405180910390a35061027e565b7f4e487b71000000000000000000000000000000000000000000000000000000005f52601160045260245ffd5b5f819050919050565b5f6102418261022e565b91507fffffffffffffffffffffffffffffffffffffffffffffffffffffffffffffffff820361027357610272610201565b5b600182019050919050565b61200e8061028b5f395ff3fe608060405234801561000f575f5ffd5b50600436106100e8575f3560e01c806378228c1f1161008a578063bd69fad911610064578063bd69fad914610248578063dd093bce14610264578063dff3b49714610280578063f2fde38b146102b0576100e8565b806378228c1f146101f25780638da5cb5b1461020e578063989292da1461022c576100e8565b8063464c76cf116100c6578063464c76cf146101585780634e4d6020146101765780634f861aab146101a65780636260ff71146101c2576100e8565b8063072a4f93146100ec5780634331ed1f1461011c57806343afec8c1461013a575b5f5ffd5b61010660048036038101906101019190611602565b6102cc565b60405161011391906116d4565b60405180910390f35b610124610417565b60405161013191906116fc565b60405180910390f35b610142610420565b60405161014f91906116fc565b60405180910390f35b610160610434565b60405161016d9190611823565b60405180910390f35b610190600480360381019061018b919061186d565b6105a9565b60405161019d91906116d4565b60405180910390f35b6101c060048036038101906101bb919061186d565b610670565b005b6101dc60048036038101906101d79190611602565b6108a3565b6040516101e991906118a7565b60405180910390f35b61020c600480360381019061020791906118c0565b61091a565b005b610216610cf3565b604051610223919061190d565b60405180910390f35b61024660048036038101906102419190611926565b610d17565b005b610262600480360381019061025d9190611964565b610e9f565b005b61027e600480360381019061027991906119cc565b611207565b005b61029a60048036038101906102959190611602565b61135d565b6040516102a791906116fc565b60405180910390f35b6102ca60048036038101906102c59190611602565b6113a3565b005b6102d4611560565b5f60045f8473ffffffffffffffffffffffffffffffffffffffff1673ffffffffffffffffffffffffffffffffffffffff1681526020019081526020015f205490505f8103610357576040517f08c379a000000000000000000000000000000000000000000000000000000000815260040161034e90611a51565b60405180910390fd5b60035f8281526020019081526020015f206040518060a00160405290815f82015f9054906101000a900473ffffffffffffffffffffffffffffffffffffffff1673ffffffffffffffffffffffffffffffffffffffff1673ffffffffffffffffffffffffffffffffffffffff16815260200160018201548152602001600282015f9054906101000a900460ff1615151515815260200160038201548152602001600482015f9054906101000a900460ff161515151581525050915050919050565b5f600254905090565b5f6001805461042f9190611a9c565b905090565b60605f600180546104459190611a9c565b90505f8167ffffffffffffffff81111561046257610461611acf565b5b60405190808252806020026020018201604052801561049b57816020015b610488611560565b8152602001906001900390816104805790505b5090505f600190505b8281116105a05760035f8281526020019081526020015f206040518060a00160405290815f82015f9054906101000a900473ffffffffffffffffffffffffffffffffffffffff1673ffffffffffffffffffffffffffffffffffffffff1673ffffffffffffffffffffffffffffffffffffffff16815260200160018201548152602001600282015f9054906101000a900460ff1615151515815260200160038201548152602001600482015f9054906101000a900460ff161515151581525050826001836105719190611a9c565b8151811061058257610581611afc565b5b6020026020010181905250808061059890611b29565b9150506104a4565b50809250505090565b6105b1611560565b60035f8381526020019081526020015f206040518060a00160405290815f82015f9054906101000a900473ffffffffffffffffffffffffffffffffffffffff1673ffffffffffffffffffffffffffffffffffffffff1673ffffffffffffffffffffffffffffffffffffffff16815260200160018201548152602001600282015f9054906101000a900460ff1615151515815260200160038201548152602001600482015f9054906101000a900460ff1615151515815250509050919050565b5f5f9054906101000a900473ffffffffffffffffffffffffffffffffffffffff1673ffffffffffffffffffffffffffffffffffffffff163373ffffffffffffffffffffffffffffffffffffffff16146106fe576040517f08c379a00000000000000000000000000000000000000000000000000000000081526004016106f590611bba565b60405180910390fd5b60018103610741576040517f08c379a000000000000000000000000000000000000000000000000000000000815260040161073890611c22565b60405180910390fd5b5f60035f8381526020019081526020015f209050806004015f9054906101000a900460ff166107a5576040517f08c379a000000000000000000000000000000000000000000000000000000000815260040161079c90611c8a565b60405180910390fd5b5f816004015f6101000a81548160ff02191690831515021790555060045f825f015f9054906101000a900473ffffffffffffffffffffffffffffffffffffffff1673ffffffffffffffffffffffffffffffffffffffff1673ffffffffffffffffffffffffffffffffffffffff1681526020019081526020015f205f905560025f81548092919061083490611ca8565b9190505550805f015f9054906101000a900473ffffffffffffffffffffffffffffffffffffffff1673ffffffffffffffffffffffffffffffffffffffff16827f13a71e9693afb93c638e42e58a09b53f041f930a102831a82cc2cbb525823bd260405160405180910390a35050565b5f5f60045f8473ffffffffffffffffffffffffffffffffffffffff1673ffffffffffffffffffffffffffffffffffffffff1681526020019081526020015f205490505f8114158015610912575060035f8281526020019081526020015f206004015f9054906101000a900460ff165b915050919050565b5f5f9054906101000a900473ffffffffffffffffffffffffffffffffffffffff1673ffffffffffffffffffffffffffffffffffffffff163373ffffffffffffffffffffffffffffffffffffffff16146109a8576040517f08c379a000000000000000000000000000000000000000000000000000000000815260040161099f90611bba565b60405180910390fd5b5f73ffffffffffffffffffffffffffffffffffffffff168173ffffffffffffffffffffffffffffffffffffffff1603610a16576040517f08c379a0000000000000000000000000000000000000000000000000000000008152600401610a0d90611d19565b60405180910390fd5b5f60045f8373ffffffffffffffffffffffffffffffffffffffff1673ffffffffffffffffffffffffffffffffffffffff1681526020019081526020015f205414610a95576040517f08c379a0000000000000000000000000000000000000000000000000000000008152600401610a8c90611da7565b60405180910390fd5b5f60045f8473ffffffffffffffffffffffffffffffffffffffff1673ffffffffffffffffffffffffffffffffffffffff1681526020019081526020015f205490505f8103610b18576040517f08c379a0000000000000000000000000000000000000000000000000000000008152600401610b0f90611e0f565b60405180910390fd5b60035f8281526020019081526020015f206004015f9054906101000a900460ff16610b78576040517f08c379a0000000000000000000000000000000000000000000000000000000008152600401610b6f90611c8a565b60405180910390fd5b60045f8473ffffffffffffffffffffffffffffffffffffffff1673ffffffffffffffffffffffffffffffffffffffff1681526020019081526020015f205f90558060045f8473ffffffffffffffffffffffffffffffffffffffff1673ffffffffffffffffffffffffffffffffffffffff1681526020019081526020015f20819055508160035f8381526020019081526020015f205f015f6101000a81548173ffffffffffffffffffffffffffffffffffffffff021916908373ffffffffffffffffffffffffffffffffffffffff16021790555060018103610c9357815f5f6101000a81548173ffffffffffffffffffffffffffffffffffffffff021916908373ffffffffffffffffffffffffffffffffffffffff1602179055505b8173ffffffffffffffffffffffffffffffffffffffff168373ffffffffffffffffffffffffffffffffffffffff16827f072f87864fbc41ca4d93cc874de3940a53c57a48d01cedd5d2cf82d83182c1ea60405160405180910390a4505050565b5f5f9054906101000a900473ffffffffffffffffffffffffffffffffffffffff1681565b5f5f9054906101000a900473ffffffffffffffffffffffffffffffffffffffff1673ffffffffffffffffffffffffffffffffffffffff163373ffffffffffffffffffffffffffffffffffffffff1614610da5576040517f08c379a0000000000000000000000000000000000000000000000000000000008152600401610d9c90611bba565b60405180910390fd5b612710811115610dea576040517f08c379a0000000000000000000000000000000000000000000000000000000008152600401610de190611e77565b60405180910390fd5b5f60035f8481526020019081526020015f209050806004015f9054906101000a900460ff16610e4e576040517f08c379a0000000000000000000000000000000000000000000000000000000008152600401610e4590611c8a565b60405180910390fd5b5f81600101549050828260010181905550837fb87cc4534c228b08f84591e9fe942db949482fbe1df4d5f664ddb90e197c77258285604051610e91929190611e95565b60405180910390a250505050565b5f5f9054906101000a900473ffffffffffffffffffffffffffffffffffffffff1673ffffffffffffffffffffffffffffffffffffffff163373ffffffffffffffffffffffffffffffffffffffff1614610f2d576040517f08c379a0000000000000000000000000000000000000000000000000000000008152600401610f2490611bba565b60405180910390fd5b5f73ffffffffffffffffffffffffffffffffffffffff168273ffffffffffffffffffffffffffffffffffffffff1603610f9b576040517f08c379a0000000000000000000000000000000000000000000000000000000008152600401610f9290611d19565b60405180910390fd5b5f60045f8473ffffffffffffffffffffffffffffffffffffffff1673ffffffffffffffffffffffffffffffffffffffff1681526020019081526020015f20541461101a576040517f08c379a000000000000000000000000000000000000000000000000000000000815260040161101190611f2c565b60405180910390fd5b61271081111561105f576040517f08c379a000000000000000000000000000000000000000000000000000000000815260040161105690611e77565b60405180910390fd5b5f60015f81548092919061107290611b29565b9190505590506040518060a001604052808473ffffffffffffffffffffffffffffffffffffffff1681526020018381526020016001151581526020014281526020016001151581525060035f8381526020019081526020015f205f820151815f015f6101000a81548173ffffffffffffffffffffffffffffffffffffffff021916908373ffffffffffffffffffffffffffffffffffffffff160217905550602082015181600101556040820151816002015f6101000a81548160ff021916908315150217905550606082015181600301556080820151816004015f6101000a81548160ff0219169083151502179055509050508060045f8573ffffffffffffffffffffffffffffffffffffffff1673ffffffffffffffffffffffffffffffffffffffff1681526020019081526020015f208190555060025f8154809291906111b990611b29565b91905055508273ffffffffffffffffffffffffffffffffffffffff16817fd1a9505dc14779394956ff41759d1b3f50abb4873d5bd171fcaef79e0a66d9b860405160405180910390a3505050565b5f60045f3373ffffffffffffffffffffffffffffffffffffffff1673ffffffffffffffffffffffffffffffffffffffff1681526020019081526020015f205490505f8114158015611275575060035f8281526020019081526020015f206004015f9054906101000a900460ff165b6112b4576040517f08c379a00000000000000000000000000000000000000000000000000000000081526004016112ab90611fba565b60405180910390fd5b5f60045f3373ffffffffffffffffffffffffffffffffffffffff1673ffffffffffffffffffffffffffffffffffffffff1681526020019081526020015f205490508260035f8381526020019081526020015f206002015f6101000a81548160ff021916908315150217905550807f436e6bbd54ad1a57cf4f4d0f39c62f91b4dffb91a6a2eecbf61313aca2460cb38460405161135091906118a7565b60405180910390a2505050565b5f60045f8373ffffffffffffffffffffffffffffffffffffffff1673ffffffffffffffffffffffffffffffffffffffff1681526020019081526020015f20549050919050565b5f5f9054906101000a900473ffffffffffffffffffffffffffffffffffffffff1673ffffffffffffffffffffffffffffffffffffffff163373ffffffffffffffffffffffffffffffffffffffff1614611431576040517f08c379a000000000000000000000000000000000000000000000000000000000815260040161142890611bba565b60405180910390fd5b5f73ffffffffffffffffffffffffffffffffffffffff168173ffffffffffffffffffffffffffffffffffffffff160361149f576040517f08c379a000000000000000000000000000000000000000000000000000000000815260040161149690611d19565b60405180910390fd5b5f5f5f9054906101000a900473ffffffffffffffffffffffffffffffffffffffff169050815f5f6101000a81548173ffffffffffffffffffffffffffffffffffffffff021916908373ffffffffffffffffffffffffffffffffffffffff1602179055508173ffffffffffffffffffffffffffffffffffffffff168173ffffffffffffffffffffffffffffffffffffffff167f8be0079c531659141344cd1fd0a4f28419497f9722a3daafe3b4186f6b6457e060405160405180910390a35050565b6040518060a001604052805f73ffffffffffffffffffffffffffffffffffffffff1681526020015f81526020015f151581526020015f81526020015f151581525090565b5f5ffd5b5f73ffffffffffffffffffffffffffffffffffffffff82169050919050565b5f6115d1826115a8565b9050919050565b6115e1816115c7565b81146115eb575f5ffd5b50565b5f813590506115fc816115d8565b92915050565b5f60208284031215611617576116166115a4565b5b5f611624848285016115ee565b91505092915050565b611636816115c7565b82525050565b5f819050919050565b61164e8161163c565b82525050565b5f8115159050919050565b61166881611654565b82525050565b60a082015f8201516116825f85018261162d565b5060208201516116956020850182611645565b5060408201516116a8604085018261165f565b5060608201516116bb6060850182611645565b5060808201516116ce608085018261165f565b50505050565b5f60a0820190506116e75f83018461166e565b92915050565b6116f68161163c565b82525050565b5f60208201905061170f5f8301846116ed565b92915050565b5f81519050919050565b5f82825260208201905092915050565b5f819050602082019050919050565b60a082015f8201516117525f85018261162d565b5060208201516117656020850182611645565b506040820151611778604085018261165f565b50606082015161178b6060850182611645565b50608082015161179e608085018261165f565b50505050565b5f6117af838361173e565b60a08301905092915050565b5f602082019050919050565b5f6117d182611715565b6117db818561171f565b93506117e68361172f565b805f5b838110156118165781516117fd88826117a4565b9750611808836117bb565b9250506001810190506117e9565b5085935050505092915050565b5f6020820190508181035f83015261183b81846117c7565b905092915050565b61184c8161163c565b8114611856575f5ffd5b50565b5f8135905061186781611843565b92915050565b5f60208284031215611882576118816115a4565b5b5f61188f84828501611859565b91505092915050565b6118a181611654565b82525050565b5f6020820190506118ba5f830184611898565b92915050565b5f5f604083850312156118d6576118d56115a4565b5b5f6118e3858286016115ee565b92505060206118f4858286016115ee565b9150509250929050565b611907816115c7565b82525050565b5f6020820190506119205f8301846118fe565b92915050565b5f5f6040838503121561193c5761193b6115a4565b5b5f61194985828601611859565b925050602061195a85828601611859565b9150509250929050565b5f5f6040838503121561197a576119796115a4565b5b5f611987858286016115ee565b925050602061199885828601611859565b9150509250929050565b6119ab81611654565b81146119b5575f5ffd5b50565b5f813590506119c6816119a2565b92915050565b5f602082840312156119e1576119e06115a4565b5b5f6119ee848285016119b8565b91505092915050565b5f82825260208201905092915050565b7f56696c6c6167653a2061646472657373206e6f7420666f756e640000000000005f82015250565b5f611a3b601a836119f7565b9150611a4682611a07565b602082019050919050565b5f6020820190508181035f830152611a6881611a2f565b9050919050565b7f4e487b71000000000000000000000000000000000000000000000000000000005f52601160045260245ffd5b5f611aa68261163c565b9150611ab18361163c565b9250828203905081811115611ac957611ac8611a6f565b5b92915050565b7f4e487b71000000000000000000000000000000000000000000000000000000005f52604160045260245ffd5b7f4e487b71000000000000000000000000000000000000000000000000000000005f52603260045260245ffd5b5f611b338261163c565b91507fffffffffffffffffffffffffffffffffffffffffffffffffffffffffffffffff8203611b6557611b64611a6f565b5b600182019050919050565b7f56696c6c6167653a2063616c6c6572206973206e6f7420746865206f776e65725f82015250565b5f611ba46020836119f7565b9150611baf82611b70565b602082019050919050565b5f6020820190508181035f830152611bd181611b98565b9050919050565b7f56696c6c6167653a2063616e6e6f742072656d6f7665206f776e6572000000005f82015250565b5f611c0c601c836119f7565b9150611c1782611bd8565b602082019050919050565b5f6020820190508181035f830152611c3981611c00565b9050919050565b7f56696c6c6167653a2076696c6c61676572206e6f7420616374697665000000005f82015250565b5f611c74601c836119f7565b9150611c7f82611c40565b602082019050919050565b5f6020820190508181035f830152611ca181611c68565b9050919050565b5f611cb28261163c565b91505f8203611cc457611cc3611a6f565b5b600182039050919050565b7f56696c6c6167653a207a65726f206164647265737300000000000000000000005f82015250565b5f611d036015836119f7565b9150611d0e82611ccf565b602082019050919050565b5f6020820190508181035f830152611d3081611cf7565b9050919050565b7f56696c6c6167653a206e6577206164647265737320616c7265616479207265675f8201527f6973746572656400000000000000000000000000000000000000000000000000602082015250565b5f611d916027836119f7565b9150611d9c82611d37565b604082019050919050565b5f6020820190508181035f830152611dbe81611d85565b9050919050565b7f56696c6c6167653a206f6c642061646472657373206e6f7420666f756e6400005f82015250565b5f611df9601e836119f7565b9150611e0482611dc5565b602082019050919050565b5f6020820190508181035f830152611e2681611ded565b9050919050565b7f56696c6c6167653a2063617020657863656564732031303025000000000000005f82015250565b5f611e616019836119f7565b9150611e6c82611e2d565b602082019050919050565b5f6020820190508181035f830152611e8e81611e55565b9050919050565b5f604082019050611ea85f8301856116ed565b611eb560208301846116ed565b9392505050565b7f56696c6c6167653a206164647265737320616c726561647920726567697374655f8201527f7265640000000000000000000000000000000000000000000000000000000000602082015250565b5f611f166023836119f7565b9150611f2182611ebc565b604082019050919050565b5f6020820190508181035f830152611f4381611f0a565b9050919050565b7f56696c6c6167653a2063616c6c6572206973206e6f7420616e206163746976655f8201527f2076696c6c616765720000000000000000000000000000000000000000000000602082015250565b5f611fa46029836119f7565b9150611faf82611f4a565b604082019050919050565b5f6020820190508181035f830152611fd181611f98565b905091905056fea2646970667358221220ea009f3853b981f0f8385ddd91b8d701bfa8db1f37819648cf189e2495290dda64736f6c63430008210033","linkReferences":{}},"methodIdentifiers":{"activeCount()":"4331ed1f","addVillager(address,uint256)":"bd69fad9","getAllVillagers()":"464c76cf","getIdByAddress(address)":"dff3b497","getVillager(uint256)":"4e4d6020","getVillagerByAddress(address)":"072a4f93","isVillager(address)":"6260ff71","owner()":"8da5cb5b","recoverWallet(address,address)":"78228c1f","removeVillager(uint256)":"4f861aab","setCap(uint256,uint256)":"989292da","setVoteReinvest(bool)":"dd093bce","transferOwnership(address)":"f2fde38b","villagerCount()":"43afec8c"},"id":20}